:020000040000FA
:2B000000FFFF62FF2500FFFFFFFFFFFFFFFFFFFFFFFFFFFFFFFFFFFFFFFFFFFFFFFFFFFFFFFFFFFFFFFFFFFFFFFFFF76
:2B002B00601886611896611986611986611886611986010000000018866118966119866518866118866118866180A36B
:2B00560040100441100EE11004E11004411004E110040100000000100441100EE110844310044110044110044100CDA0
:2B008100000000000000000000000000000000000000000000000000000000000000000000000000000000000080E7ED
:2B00AC00000000000000000000000000000000000000000000000000000000000000000000000000000000000080E7C2
:2B00D700000000000008800200800000000000800200000000000000000000088000000200000000000000000080C5A3
:2B010200000000000020000000000200000000200000000000000000000040022400800200000000000000000000EDBB
:2B012D00000000000000000000000000000000000000000000000000000000000000000000000000000000000080E740
:2B015800000000000000000000000000000000000000000000000000000000000000000000000000000000000080E715
:2B018300000000000000000000000000000000000000000000000000000000000000000000000000000000000080E7EA
:2B01AE00000000000000000000000000000000000000000000000000000000000000000000000000000000000080E7BF
:2B01D900000000000000000000000000000000000000000000000000000000000000000000000000000000000008EF04
:2B0204000000000000000000000000000000000000000000000000000000000000000000000000000000000000A0C56A
:2B022F00000000000000000000000000000000000000000000000000000000000000000000000000000000000080E73D
:2B025A00080000000000000000000000000000000000000000000000000000000000000000000000000000000080EF02
:2B028500000000000000000000000000000000000000000000000000000000000000000000000000000000000080E7E7
:2B02B0000800000000000000000000000000000000000000000000000000000000000000000000000000000000A0CDAE
:2B02DB00000000000000000000000000000000000000000000000000000000000000000000000000000000000080E791
:2B030600000000000000000000000000000000000000000000000000000000000000000000000000000000000080E765
:2B033100000000000000000000000000000000000020000000000000000000000000000000000000000000000080C53C
:2B035C00000000000000000000000000000000000000000000000000000000000000000000000000000000000080E70F
:2B038700400800000000010000000000000000000008000000000000000000000000000000000000000000000080AECC
:2B03B200020000000000010000000000000000000000020000000000000000000000000000000000000000000008EE25
:2B03DD00400800000000000000000000000000000000000000000000000000000000000000000000000000000000A706
:2B040800000000000000000000000000000000000000000000000000000000000000000000000000000000000080E762
:2B043300000000000000000000000000000000000000000000000000000000000000000000000000000000000080E737
:2B045E00000000000000000000000000000000000000000000000000000000000000000000000000000000000080E70C
:2B048900020000000000000000000000000000000000000000000000000000000000000000000000000000000008ED51
:2B04B400800008800008800008800008800008800008000000000020000220000220000220000220000220000280E7BA
:2B04DF00800008800008800008800008800008800008000000000020000220000220000220000220000220000280E78F
:2B050A00000000000000000000000000000000000000000000000000000000000000000000000000000000000080E75F
:2B053500020000000000000000000000000000000000000000000000000000000000000000000000000000000008EDA4
:2B056000020000000000000000000000000000000000000000000000000000000000000000000000000000000008ED79
:2B058B00040000000000000000000000000000000000000000000000000000000000000000000000000000000090F2BF
:2B05B600020000000000000000000000000000000000000000000000000000000000000000000000000000000008ED23
:2B05E100020000000000000000000000000000000000000000000000000000000000000000000000000000000008EDF8
:2B060C00020000000000000000000000000000000000000000000000000000000000000000000000000000000008EDCC
:2B063700000000000000000000000000000000000000000000000000000000000000000000000000000000000080E731
:2B066200000000000000000000000000000000000000000000000000000000000000000000000000000000000080E706
:2B068D000000000000000000000000000000000000A6000000000000000000000000000000000000000000000000A5F7
:2B06B800020000000000000000000000000000000002000000000000000000000000000000000000000000000008CD3E
:2B06E3000000000000000000000000000000000000340800000000000000000000000000000000000000000000809C94
:2B070E0000000000000000000000000000000000001A000000000000000000000000000000000000000000000000DEC8
:2B07390000000000000000000000000000000000005A0000000000000000000000000000000000000000000000009AA1
:2B076400000000000000000000000000000000000018000000000000000000000000000000000000000000000000FE54
:2B078F00020000000000000000000000000000000030010000000000000000000000000000000000000000000008DF25
:2B07BA00000000000000000000000000000000000000000000000000000000000000000000000000000000000080E7AD
:2B07E500000000000000000000000000000000000000000000000000000000000000000000000000000000000080E782
:2B081000000000000000000000000000000000000000000000000000000000000000000000000000000000000080E756
:2B083B00020000000000000000000000000000000000000000000000000000000000000000000000000000000008ED9B
:2B086600000000000000000000000000000000000000000000000000000000000000000000000000000000000008EF70
:2B089100000000000000000000000000000000000000000000000000000000000000000000000000000000000090F6B6
:2B08BC00000000000000000000000000000000000000000000000000000000000000000000000000000000000008EF1A
:2B08E700000000000000000000000000000000000000000000000000000000000000000000000000000000000008EFEF
:2B091200020000000000000000000000000000000000000000000000000000000000000000000000000000000008EDC3
:2B093D000000000000000000000000000000000000960000000000000000000000000000000000000000000000009663
:2B096800000000000000000000000000000000000002000000000000000000000000000000000000000000000080C71B
:2B0993000000000000000000000000000000000000240800000000000000000000000000000000000000000000808D00
:2B09BE0002000000000000000000000000000000001A000000000000000000000000000000000000000000000088D496
:2B09E900020000000000000000000000000000000052000000000000000000000000000000000000000000000080907F
:2B0A1400040000000000000000000000000000000018000000000000000000000000000000000000000000000000FAA1
:2B0A3F00020000000000000000000000000000000018020000000000000000000000000000000000000000000000FE72
:2B0A6A00020000000000000000000000000000000040000000000000000000000000000000000000000000000080A1FE
:2B0A95000200000000000000000000000000000000060000000000000000000000000000000000000000000000088D99
:2B0AC000000000000000000000000000000000000002000000000000000000000000000000000000000000000080C7C2
:2B0AEB000000000000000000000000000000000000340800000000000000000000000000000000000000000000809C88
:2B0B160000000000000000000000000000000000001A000000000000000000000000000000000000000000000000DEBC
:2B0B410000000000000000000000000000000000005A0000000000000000000000000000000000000000000000889215
:2B0B6C00020000000000000000000000000000000018000000000000000000000000000000000000000000000000FC48
:2B0B9700020000000000000000000000000000000010010000000000000000000000000000000000000000000080F5AB
:2B0BC200020000000000000000000000000000000018000000000000000000000000000000000000000000000000FCF2
:2B0BED0002000000000000000000000000000000005A00000000000000000000000000000000000000000000000098E9
:2B0C180000000000000000000000000000000000001A000000000000000000000000000000000000000000000088D639
:2B0C430000000000000000000000000000000000001C000000000000000000000000000000000000000000000000BEAC
:2B0C6E00000000000000000000000000000000000002000000000000000000000000000000000000000000000080C712
:2B0C9900000000000000000000000000000000000002000000000000000000000000000000000000000000000080C7E7
:2B0CC400020000000000000000000000000000000000000000000000000000000000000000000000000000000008ED0E
:2B0CEF00000000000000000000000000000000000000000000000000000000000000000000000000000000000080E773
:2B0D1A00000000000000000000000000000000000040000000000000000000000000000000000000000000000080A34B
:2B0D4500000000000000000000000000000000000026000000000000000000000000000000000000000000000080A538
:2B0D7000000000000000000000000000000000000012000000000000000000000000000000000000000000000080D6F0
:2B0D9B000200000000000000000000000000000000240800000000000000000000000000000000000000000000088770
:2B0DC60000000000000000000000000000000000001A000000000000000000000000000000000000000000000000DE0A
:2B0DF10000000000000000000000000000000000005A0000000000000000000000000000000000000000000000009AE3
:2B0E1C00000000000000000000000000000000000010000000000000000000000000000000000000000000000080F625
:2B0E4700020000000000000000000000000000000018010000000000000000000000000000000000000000000088F5E8
:2B0E7200020000000000000000000000000000000000000000000000000000000000000000000000000000000008ED5E
:2B0E9D00040000000000000000000000000000000076000000000000000000000000000000000000000000000090E53B
:2B0EC800020000000000000000000000000000000002000000000000000000000000000000000000000000000008CD26
:2B0EF3000200000000000000000000000000000000240800000000000000000000000000000000000000000000088717
:2B0F1E0002000000000000000000000000000000001A000000000000000000000000000000000000000000000088D430
:2B0F49000000000000000000000000000000000000520000000000000000000000000000000000000000000000809219
:2B0F7400000000000000000000000000000000000018000000000000000000000000000000000000000000000000FE3C
:2B0F9F00000000000000000000000000000000000018010000000000000000000000000000000000000000000000FF0F
:2B0FCA00080000000000000000000000000000000008000000000000000000000000000000000000000000000000E705
:2B0FF500000000000000000000000000000000000000000000000000000000000000000000000000000000000080E76A
:2B102000800008800008800008800008800008800004000000000020000220000220000220000220000220000200AFFE
:2B104B00800008800008800008800008800008800008000000000020000220000220000220000220000220000280E717
:2B107600000000000000000000000000000000002102080000000000000000000000000000000000000000000080DCC8
:2B10A100000000040000000000000000000000000100000000000000000000000000000000000000000000000080F2AD
:2B10CC00200000000000000000000000000000000000000000000000000000000000000000000000000000000080C792
:2B10F700000000040000008000400000000000002000000000000000000000000000000000000000000000000080A9C1
:2B1122002000000000000080004000000000000001020A0000000000000000000000000000000000000000000080B481
:2B114D00000000000000000000000000000000000010000000000000000000000000000000000000000000000080F6F1
:2B117800000000000000000000000000000000000000000000000000000000000000000000000000000000000080E7E5
:2B11A300000000000000000000000000000000000000000000000000000000000000000000000000000000000080E7BA
:2B11CE00000000000000000000000000000000000000000000000000000000000000000000000000000000000080E78F
:2B11F900120000000000000000000000000000000008040000000000000000000000000000000000000000000088F134
:2B122400000000000000000000000000000000000000000000000000000000000000000000000000000000000080E738
:2B124F00020000000000000000000000000000000000000000000000000000000000000000000000000000000080E50D
:2B127A00000000000000000000000000000000000000000000000000000000000000000000000000000000000080E7E2
:2B12A500000000000000000000000000000000000000000000000000000000000000000000000000000000000008EF27
:2B12D000100000000000000000000000000000000000000000000000000000000000000000000000000000000080F76C
:2B12FB00000000000000000000000000000000000000000000000000000000000000000000000000000000000080E761
:2B132600000000000000000000000000000000000000000000000000000000000000000000000000000000000080E735
:2B135100000000000000000000000000000000000000000000000000000000000000000000000000000000000080E70A
:2B137C00000000000000000000000000000000000000000000000000000000000000000000000000000000000080E7DF
:2B13A700000000000000000000000000000000000000000000000000000000000000000000000000000000000080E7B4
:2B13D200000000000000000000000000000000000000000000000000000000000000000000000000000000000080E789
:2B13FD00000000000000000000000000000000000000000000000000000000000000000000000000000000000080E75E
:2B142800000000000000000000000000000000000000000000000000000000000000000000000000000000000080E732
:2B145300000000000000000000000000000000000000000000000000000000000000000000000000000000000080E707
:2B147E00000000000000000000000000000000000000000000000000000000000000000000000000000000000080E7DC
:2B14A900000000000000000000000000000000000000000000000000000000000000000000000000000000000080E7B1
:2B14D4000200000000000000000000000000000000000000000000000000000000000000000000000000000000C0A18A
:2B14FF00000000000000000000000000000000000000000000000000000000000000000000000000000000000080E75B
:2B152A000200000000000000000000000000000000000000000000000000000000000000000000000000000000C0A133
:2B155500000000000000000000000000000000000000000000000000000000000000000000000000000000000080E704
:2B158000000000000000000000000000000000000000000000000000000000000000000000000000000000000080E7D9
:2B15AB00000000000000000000000000000000000000000000000000000000000000000000000000000000000080E7AE
:2B15D600000000000000000000000000000000000000000000000000000000000000000000000000000000000080E783
:2B160100000000000000020000200000000000000000000000000000000002000000000000000000000000000080E535
:2B162C00020000000000000000000000000000000000000000000000000000000000000000000000000000000008ED9C
:2B165700000000000010000000000100000000000000000000000000000002000000000000000000000000000008CF7E
:2B168200000000000000000000000000000000000000000000000000000000000000000000000000000000000090F6B7
:2B16AD00000000000010020000200000000000000000000000000000000000000000000000000000000000000008DCFC
:2B16D800000000000000000000000000000000000000000000000000000000000000000000000000000000000008EFF0
:2B170300020000000000000000000000000000000000000000000000000000000000000000000000000000000008EDC4
:2B172E00800008800008800008800008800008800008000000000020000220000220000220000220000220000280E72D
:2B175900800008800008800008800008800008800008000000000020000220000220000220000220000220000280E702
:2B178400000000000000000000000000000000000000000000000000000000000000000000000000000000000080E7D3
:2B17AF00000000000000000000000000000000000000000000000000000000000000000000000000000000000008EF18
:2B17DA00020000000000000000000000000000000000000000000000000000000000000000000000000000000080E57D
:2B180500020000000000000000000000000000000000000000000000000000000000000000000000000000000080E551
:2B183000020000000000000000000000000000000000000000000000000000000000000000000000000000000080E526
:2B185B00020000000000000000000000000000000000000000000000000000000000000000000000000000000080E5FB
:2B188600000000000000000000000000000000000000000000000000000000000000000000000000000000000008EF40
:2B18B100000000000000000000000000000000000000000000000000000000000000000000000000000000000080E7A5
:2B18DC00000000000000000000000000000000000000000000000000000000000000000000000000000000000080E77A
:2B190700000000000000000000000000000000000000000000000000000000000000000000000000000000000080E74E
:2B193200020000000000000000000000000000000000000000000000000000000000000000000000000000000080E523
:2B195D00000000000000000000000000000000000000000000000000000000000000000000000000000000000008EF68
:2B198800000000000000000000000000000000000000000000000000000000000000000000000000000000000008EF3D
:2B19B300000000000000000000000000000000000000000000000000000000000000000000000000000000000008EF12
:2B19DE00000000000000000000000000000000000000000000000000000000000000000000000000000000000008EFE7
:2B1A0900020000000000000000000000000000000000000000000000000000000000000000000000000000000080E54B
:2B1A3400000000000800000000000900000000000000000000000000000000000000000000000000000000000080F600
:2B1A5F00000000600000000000600000000000000000000000000000000000000000000000000000000000000080E735
:2B1A8A00000000200000000000204000000000000000000000000000000000000000000000000000000000000080E34E
:2B1AB500020000408300000000400000000000000000000000000000000000000000000000000000000000000008D623
:2B1AE000020000A00100000000200100000000000000000000000000000000000000000000000000000000000000ED2A
:2B1B0B00040000A00301000000A00301000000000000000000000000000000000000000000000000000000000080E300
:2B1B3600020000800100000000808100000000000000000000000000000000000000000000000000000000000080ED93
:2B1B6100020000000101000000800100000000000000000000000000000000000000000000000000000000000000FDD7
:2B1B8C00020000000000000000000000000000000000000000000000000000000000000000000000000000000008ED37
:2B1BB700000000600800000000600800000000000000000000000000000000000000000000000000000000000080E7CC
:2B1BE200000000200000000000204000000000000000000000000000000000000000000000000000000000000080E3F5
:2B1C0D00000000408300000000400100000000000000000000000000000000000000000000000000000000000080CD5B
:2B1C3800020000A00100000000A00100000000000000000000000000000000000000000000000000000000000008ED48
:2B1C6300000000A00301000000A00301000000000000000000000000000000000000000000000000000000000008EF17
:2B1C8E00000000800100000000800100000000000000000000000000000000000000000000000000000000000090F6A3
:2B1CB900000000001100000000008300000000000000000000000000000000000000000000000000000000000008C4A0
:2B1CE400000000000000000000000400000000000000000000000000000000010000000000000000000000000008AA1E
:2B1D0F000200000000000000006001000000000000000000000000000000180000000000000000000000000000888521
:2B1D3A000000000000000000002040000000000000000000000000000000480000000000000000000000000000008F47
:2B1D6500000000000000000000400000000000000000000000000000000090040000000000000000000000000000B2CD
:2B1D9000000000000000000000A00100000000000000000000000000000068400000000000000000000000000080F06F
:2B1DBB000000000000000000002003010000000000000000000000000000E80000000000000000000000000000088267
:2B1DE600020000000000000000800100000000000000000000000000000040000000000000000000000000000000B857
:2B1E11000200000000000000008083000000000000000000000000000000E02000000000000000000000000000809091
:2B1E3C00020000000000000000000000000000000000000000000000000000000000000000000000000000000080E514
:2B1E6700020000000000000000000000000000000000000000000000000000000000000000000000000000000080E5E9
:2B1E9200000000000000000000000000000000000000000000000000000000000000000000000000000000000008EF2E
:2B1EBD00000000000000000000000000000000000000000000000000000000000000000000000000000000000080E793
:2B1EE800000000000000000000000000000000000000000000000000000000000000000000000000000000000080E768
:2B1F1300000000000000000000000000000000000000000000000000000000000000000000000000000000000080E73C
:2B1F3E00020000000000000000000000000000000000000000000000000000000000000000000000000000000080E511
:2B1F6900000000000000000000000000000000000000000000000000000000000000000000000000000000000008EF56
:2B1F9400000000000500000400000000000000000000000000000000000000000000000000000000000000000008FE13
:2B1FBF00000000600200600200000000000000000000000000000000000000000000000000000000000000000008EF3C
:2B1FEA00000000200000200100000000000000000000000000000000000000000000000000000000000000000008FE85
:2B201500020000408200408200000000000000000000000000000000000000000000000000000000000000000080E5B5
:2B204000000000200100A00100000000000000000000000000000000000000000000000000000000000000000000EFC4
:2B206B00000000A00301A00301000000000000000000000000000000000000000000000000000000000000000080E79B
:2B209600000000800100000100000000000000000000000000000000000000000000000000000000000000000000EFAE
:2B20C100020000800101801100000000000000000000000000000000000000000000000000000000000000000008FCDB
:2B20EC00020000000000000000000100000000000000000000000000000040000000000000000000000000000080B056
:2B211700040000600700000000600600000000000000000000000000000098010000000000000000000000000080EAC9
:2B214200020000200000000000204000000000000000000000000000000008000000000000000000000000000000E9FF
:2B216D00020000408200000000400000000000000000000000000000000090040000000000000000000000000000DAD5
:2B219800020000A00100000000200100000000000000000000000000000048400000000000000000000000000008E9DF
:2B21C300000000200301000000A003010000000000000000000000000000E800000000000000000000000000000081C0
:2B21EE000000008001000000008001000000000000000000000000000000600000000000000000000000000000808163
:2B221900080000801100000000808300000000000000000000000000000060040000000000000000000000000090B753
:2B224400080000800000800000800000000000000000000000000000000020000000000000000000000000000010D4E3
:2B226F00000000000000000000000000000000000000000000000000000000000000000000000000000000000080E7DD
:2B229A00800008000008000008000008800008800008000000000020000200000220000220000220000220000200CDF0
:2B22C500800008800008800008800008800008800008000000000020000220000220000220000220000220000280E78B
:2B22F000000000200000000000000001000000000000000000000000000000000200000000000000000000000080F52B
:2B231B00000000000100004000000200000000040000000000000000000000000000000000000000000000000080D4FC
:2B2346006000000800000001000000000000000018000000000000000000000000000000000000000000000000009F4C
:2B237100000000000000004000000000000000040000000000000000000000000000000000000000000000000080E796
:2B239C0060000028010000000080020100000000180000000000000000002000020000000000000000000000008085CB
:2B23C700000000000100000100000000000000000000000000000000000040000000000000000000000000000080A386
:2B23F200000000000000000000000000000000000000000000000000000000000000000000000000000000000080E759
:2B241D00000000000000000000004000000000000000000000000000000020100000000000000000000000000080D1D3
:2B244800000000000000000000000000000000000000000000000000000000000000000000000000000000000080E702
:2B247300000000004001004000000000000000000000000000000000000000000000000000000000000000000080F746
:2B249E00000000000000000000001000000000000000000000000000000000000000000000000000000000000080E69D
:2B24C900000000000000000000000000000000000000000000000000000000000000000000000000000000000080E781
:2B24F400000000000000000000000000000000000000000000000000000000000000000000000000000000000080E756
:2B251F00000000000000000000000000000000000000000000000000000000000000000000000000000000000080E72A
:2B254A00000000000000000000000000000000000000000000000000000000000000000000000000000000000080E7FF
:2B257500000000008000008000008000000000000000000000000000000000000000000000000000000000000080EF4C
:2B25A000020000000000000000002000000000000000000000000000000000000000000000000000000000000080E787
:2B25CB00000000000000000000000000000000000000000000000000000000000000000000000000000000000080E77E
:2B25F6000000000000000000000000000000000000000000000000000000002000000000000000000000000000C08357
:2B262100000000000000000000000000000000000000000000000000000000000000000000000000000000000008EF97
:2B264C00000000000000000000000000000000000000000000000000000000000000000000000000000000000080E7FC
:2B267700000000000000000000000000000000000000000000000000000000000000000000000000000000000080E7D1
:2B26A200020000000000000000000000000000000000000000000000000000000000000000000000000000000080E5A6
:2B26CD00000000000000000000000000000000000000000000000000000000000000000000000000000000000080E77B
:2B26F800000000000000000000000000000000000000000000000000000000000000000000000000000000000080E750
:2B2723000000000000000000000000000000000000000000000000000000000000000000000000000000000000A0C526
:2B274E00000000000000000000000000000000000000000000000000000000000000000000000000000000000080E7F9
:2B277900000000000000000000000000000000000000000000000000000000000000000000000000000000000080E7CE
:2B27A400000000000000000000000000000000000000000000000000000000000000000000000000000000000080E7A3
:2B27CF00000000000000000000000000000000000000000000000000000000000000000000000000000000000080E778
:2B27FA00000000000000000000000000000000000000000000000000000000000000000000000000000000000080E74D
:2B282500000000000000000000000000000000000000000000000000000800000000000000000000000000000000E799
:2B285000000000000000000000000000000000000000000000000000000000000000000000000000000000000080E7F6
:2B287B0080200000000000000000000000000000000200000000004080000000000000000000000002000000008083CB
:2B28A600020000020000000000000000000000000002000000000000000000000000000000000000000000000008CF2A
:2B28D100004000000000000000000000000000000000000000000000000001000000000000000000000000000080F328
:2B28FC00000000000000000000000000000000000000000000000040000000000000000000000000000000000080A34E
:2B292700000000020000000000000000000000000000000000000040800000000000000000000000020000000000AB16
:2B295200000000000000000000000000000000000000000000000000000000000000000000000000000000000080E7F3
:2B297D00020000000000000000000000000000000000000000000000000000000000000000000000000000000008ED38
:2B29A800800008800008800008800008800008800008000000000020000220000220000220000220000220000280E7A1
:2B29D300800008800008800008800008800008800008000000000020000220000220000220000220000220000280E776
:2B29FE00000800000000000000000000000000000000000000000000002000000000000000000000000000000000E5A1
:2B2A2900620200000000000000000000000000000000000000000000800900000000000000000000000000000008B6D7
:2B2A54002001000000000000000000000000000000000000000000008004000000000000000000000000000000889298
:2B2A7F004006000000000000000000000000000000000000000000000009040000000000000000000000000000108148
:2B2AAA00A00101000000000000000000000000000000000000000000800600000000000000000000000000000008A829
:2B2AD500A00300000000000000000000000000000000000000000000808E00000000000000000000000000000088920B
:2B2B0000020100000000000000000000000000000000000000000000000400000000000000000000000000000008B8E3
:2B2B2B00801300000000000000000000000000000000000000000000008600000000000000000000000000000000B3B3
:2B2B5600000000000000000000000000000000000000000000000000000000000000000000000000000000000080E7ED
:2B2B8100600A00000000000000000000000000000000000000000000000000000000000000000098020000000000BE67
:2B2BAC00220100000000000000000000000000000000000000000000000000000000000000000048000000000088907B
:2B2BD700400600000000000000000000000000000000000000000000000000000000000000000090040000000000D425
:2B2C0200A00101000000000000000000000000000000000000000000000000000000000000000068200000000080807D
:2B2C2D00A003000000000000000000000000000000000000000000000000000000000000000000E8000000000000925F
:2B2C580000030000000000000000000000000000000000000000000000000000000000000000004000000000008090FE
:2B2C8300820100000000000000000000000000000000000000000000000000000000000000000060400000000088D2A9
:2B2CAE00000900000000000000000000000000000000000000000000002400000000000000000000000000000000B01E
:2B2CD9006000000000000000000000000000000000000000000000008001000000000000000000000000000000009E51
:2B2D0400200000000000000000000000000000000000000000000000800000000000000000000000000000000000CF35
:2B2D2F004206000000000000000000000000000000000000000000000009040000000000000000000000000000889A02
:2B2D5A00220101000000000000000000000000000000000000000000800400000000000000000000000000000088809E
:2B2D8500A40300000000000000000000000000000000000000000000808E000000000000000000000000000000108FCF
:2B2DB0008201000000000000000000000000000000000000000000000006000000000000000000000000000000889255
:2B2DDB00821300000000000000000000000000000000000000000000008600000000000000000000000000000088B971
:2B2E0600020000000000000000000000000000000000000000000000000000000000000000000000000000000008EDAA
:2B2E31006008000000000000000000000000000000000000000000008021000000000000000000000000000000809C51
:2B2E5C00200100000000000000000000000000000000000000000000800000000000000000000000000000000000DECC
:2B2E8700400600000000000000000000000000000000000000000000000D04000000000000000000000000000000D4F5
:2B2EB200A20101000000000000000000000000000000000000000000800600000000000000000000000000000008AA19
:2B2EDD00A20300000000000000000000000000000000000000000000808E00000000000000000000000000000000987F
:2B2F0800040100000000000000000000000000000000000000000000000600000000000000000000000000000080947F
:2B2F33008283000000000000000000000000000000000000000000000084000000000000000000000000000000009A50
:2B2F5E00020400000000000000000000000000000000000000000000000000000000010000000000010000000080A11F
:2B2F8900620100000000000000000000000000000000000000000000000000000018000000000058000000000008D86A
:2B2FB400200000000000000000000000000000000000000000000000000000000008000000000008000000000080C77B
:2B2FDF004006000000000000000000000000000000000000000000000000000000D0400000000090040000000080C19C
:2B300A00A00101000000000000000000000000000000000000000000000000000068400000000068200000000000AE1B
:2B3035002203000000000000000000000000000000000000000000000000000000E80000000000C8000000000008DCB7
:2B306000800100000000000000000000000000000000000000000000000000000060000000000060000000000088F686
:2B308B008083000000000000000000000000000000000000000000000000000000C0040000000060400000000090A380
:2B30B600000100000000000000000000000000000000000000000000000000000000000000000000000000000008FEE8
:2B30E100600400000000000000000000000000000000000000000000000000000000000000000000000000000008CB8D
:2B310C00220000000000000000000000000000000000000000000000000000000000000000000000000000000008CDA1
:2B313700400600000000000000000000000000000000000000000000000000000000000000000000000000000080C1E6
:2B316200200101000000000000000000000000000000000000000000000000000000000000000000000000000080C6DA
:2B318D00A00300000000000000000000000000000000000000000000000000000000000000000000000000000000FC78
:2B31B800820100000000000000000000000000000000000000000000000000000000000000000000000000000088F4ED
:2B31E300808300000000000000000000000000000000000000000000000000000000000000000000000000000000D4EA
:2B320E00000400000000000000000000000000000000000000000000000000000000000000000000000000001080A25F
:2B323900600300000000000000000000000000000000000000000000000000000000000000000000000000800980AD51
:2B326400200000000000000000000000000000000000000000000000000000000000000000000000000000800000CFD0
:2B328F00420600000000000000000000000000000000000000000000000000000000000000000000000000004D889A5D
:2B32BA00A0010100000000000000000000000000000000000000000000000000000000000000000000000080068280BF
:2B32E500200300000000000000000000000000000000000000000000000000000000000000000000000000800E809AF3
:2B3310008001000000000000000000000000000000000000000000000000000000000000000000000000000006009873
:2B333B00821300000000000000000000000000000000000000000000000000000000000000000000000000000404DBEF
:2B336600000001000000000000000000000000000000000000000000000000000000000000000040000000000008BB38
:2B339100200200000000000000000000000000000000000000000000000000000000000000801D98010000000008A908
:2B33BC00A00100000000000000000000000000000000000000000000000000000000000000800008000000000088D65F
:2B33E700C007000000000000000000000000000000000000000000000000000000000000000009940400000000889437
:2B341200A2010000000000000000000000000000000000000000000000000000000000000080064C2000000000009E5C
:2B343D00A00100000000000000000000000000000000000000000000000000000000000000800CE8000000000000FC53
:2B346800000000000000000000000000000000000000000000000000000000000000000000000E60000000000000E7E4
:2B349300000000000000000000000000000000000000000000000000000000000000000000000660400000000080A741
:2B34BE00800000000000000000000000000000000000000000000000000200000020000000000220000000000288C5D0
:2B34E900000000000000000000000000000000000000000000000000000000000000000000000000000000000080E751
:2B3514004000088000088000088000088000088000080000000000200000200002000002200000000002200000008D89
:2B353F00800008800008800008800008800008800008000000000020000220000220000220000220000220000280E7FE
:2B356A00401051000000000000000000000000000000000000000000000000000000000200000000000600000080A766
:2B359500000100000000000000000100000000000000000000000000000000000000000000000000000000000480A3E2
:2B35C000000000000000000000000000000000001000000000000000000000000000000000000000000400000080A2AA
:2B35EB00000000000000008000000100000000180080010000000000000000000000000000000000000200000000C5D4
:2B361600C01141000000008000000000000000181080010000000000000000000000000200000200000000000480BF07
:2B364100000000000000000000000000000000000000000000000000000000000000000000000000400000000084E7B3
:2B366C00000000000000000000000000000000000000000000000000000000000000000000000000000000000080E7CC
:2B369700000000000000000000000000000000000000000000000000000000000000000000000020000000000280E77F
:2B36C200000000000000000000000000000000000000000000000000000000000000000000000000000000000080E776
:2B36ED00900000000000000000000000000000000000000000000000000000000000000000000000000000000000FF23
:2B371800000000000000000000000000000000000000000000000000000000000000000000000000000000000080E71F
:2B374300000000000000000000000000000000000000000000000000000000000020000000000000000000000080C5F6
:2B376E000000000000000000000000000000000000000000000000000000000000000000000000000000000000A0C5CB
:2B3799005000000000000000000000000000000000000000000000000010020000002000000001020000000000808779
:2B37C400000000000000000000000000000000000000000000000000000000000000000000000000100000000081E762
:2B37EF00004000000000000000000000000000000000000000000000000000000000000000000000000000000080E30C
:2B381A00008000000000000000000000000000000000000000000000000000000000000000000000000000000080EF94
:2B384500000000000000000000000000000000000000000000000000000000000000000000000000000000000080E7F1
:2B387000000000000000000000000000000000000000000000000000000000000000200000000002000000000080E7A4
:2B389B00008C00200400000000000000000000000080010000000000000000000000000000002200002400001080A952
:2B38C600802008840000000000000000000000000000020000000020010000000000000000008000008A00000280C834
:2B38F100000000000000000000000000000000000000000000000000000000000000000000000000000000000080E745
:2B391C00000000000000000000000000000000000000000000000000000000000000000000000000000000000080E719
:2B394700E0380EE1100441100441100441100441108403000000003804411004411004411004E11084E310844380E594
:2B397200605996611986611886611886611886611886050000000058866118866118866118866119866519866580B264
:02399D00FFFF2A
:00000001FF
