:020000040000FA
:2B000000FFFF62FF2500FFFFFFFFFFFFFFFFFFFFFFFFFFFFFFFFFFFFFFFFFFFFFFFFFFFFFFFFFFFFFFFFFFFFFFFFFF76
:2B002B00601886611886611886611886611886611886010000000018866119866118866118866118866118866180F73E
:2B00560040100441100441100441100441100441100401000000001004E110044110044110044110044110044180ED76
:2B008100000000000000000000000000000000000000000000000000000000000000000000000000000000000080E7ED
:2B00AC00000000000000000000000000000000000000000000000000000000000000000000000000000000000080E7C2
:2B00D700000000000000000000000000000000000000000000000000009000000000000000000000000000000080EE00
:2B010200000000000000000000000000000000000000000000000000000000000000000000000000000000000080E76B
:2B012D00000000000000000000000000000000000000000000000000000000000000000000000000000000000080E740
:2B015800000000000000000000000000000000000000000000000000000000000000000000000000000000000080E715
:2B018300000000000000000000000000000000000000000000000000000000000000000000000000000000000080E7EA
:2B01AE00000000000000000000000000000000000000000000000000000000000000000000000000000000000080E7BF
:2B01D900020000000000000000000000000000000000000000000000000400000000000000000000000000000080A1D4
:2B020400000000000000000000000000000000000000000000000000001000000000000000000000000000000080E659
:2B022F00000000000000000000000000000000000000000000000000000000000000000000000000000000000080E73D
:2B025A000000000000000000000000000000000000000000000000000000000000000000000000000000000000A0C514
:2B028500000000000000000000000000000000000000000000000000000000000000000000000000000000000080E7E7
:2B02B0000000000000000000000000000000000000000000000000000000000000000000000000000000000000A0C5BE
:2B02DB00080000000000000000000000000000000000000000000000000000000000000000000000000000000080EF81
:2B030600080000000000000000000000000000000000000000000000000000000000000000000000000000000080EF55
:2B033100000000000000000000000000000000000000000000000000000800000000000000000000000000000000E7B2
:2B035C00000000000000000000000000000000000000000000000000000C00000000000000000000000000000000A3C7
:2B038700000000000000000000000000000000000000000000000010020401000000000000000000000000000080A014
:2B03B200020000000000000000000000000000000000000000000000000000000000000000000000000000000008ED29
:2B03DD00000000000000000000000000000000000000000000000000000000000000000000000000000000000080E78E
:2B040800000000000000000000000000000000000000000000000000000401000000000000000000000000000080B391
:2B0433000000000000000000000000000000000000000000000000300A0000000000000000000000000000000080DE06
:2B045E00000000000000000000000000000000000000000000000000000000000000000000000000000000000080E70C
:2B048900020000000000000000000000000000000000000000000000000000000000000000000000000000000008ED51
:2B04B400800008800008800008800008800008800008000000000020000220000220000220000220000220000280E7BA
:2B04DF00800008800008800008800008800008800008000000000020000220000220000220000220000220000280E78F
:2B050A00000000000000000000000000000000000000000000000000002000000000000000000000000000000080E541
:2B053500000000000000000000000000000000000000000000000000800900000000000000000000000000000008F614
:2B056000020000000000000000000000000000000000000000000000800000000000000000000000000000000088E581
:2B058B00020000000000000000000000000000000000000000000000000704000000000000000000000000000090C3E5
:2B05B6000200000000000000000000000000000000000000000000008086000000000000000000000000000000888BFF
:2B05E100020000000000000000000000000000000000000000000000800E0000000000000000000000000000000883D4
:2B060C00000000000000000000000000000000000000000000000000000000000000000000000000000000000008EFCC
:2B0637000000000000000000000000000000000000000000000000000006000000000000000000000000000000808191
:2B066200000000000000000000000000000000000000000000000000000000000000000000000000000000000080E706
:2B068D00000000000000000000000000000000000000000000000000802900000000000000000000000000000080FC1D
:2B06B800020000000000000000000000000000000000000000000000800000000000000000000000000000000088E528
:2B06E300000000000000000000000000000000000000000000000000000704000000000000000000000000000080D091
:2B070E000000000000000000000000000000000000000000000000008086000000000000000000000000000000008139
:2B0739000000000000000000000000000000000000000000000000008006000000000000000000000000000000008986
:2B076400000000000000000000000000000000000000000000000000000000000000000000000000000000000080E703
:2B078F000200000000000000000000000000000000000000000000000006000000000000000000000000000000088BA4
:2B07BA00000000000000000000000000000000000000000000000000002000000000000000000000000000000080E58F
:2B07E500000000000000000000000000000000000000000000000000800100000000000000000000000000000000FE6A
:2B081000000000000000000000000000000000000000000000000000800000000000000000000000000000000000EF4E
:2B083B00020000000000000000000000000000000000000000000000000704000000000000000000000000000080D233
:2B0866000200000000000000000000000000000000000000000000008046000000000000000000000000000000888790
:2B08910004000000000000000000000000000000000000000000000080060000000000000000000000000000008885A5
:2B08BC00020000000000000000000000000000000000000000000000000000000000000000000000000000000008ED1A
:2B08E7000200000000000000000000000000000000000000000000000006000000000000000000000000000000088B4B
:2B091200020000000000000000000000000000000000000000000000000000000000000000000000000000000080E553
:2B093D00000000000000000000000000000000000000000000000000802100000000000000000000000000000000FCF2
:2B096800000000000000000000000000000000000000000000000000800000000000000000000000000000000000EFF5
:2B099300000000000000000000000000000000000000000000000000000704000000000000000000000000000080D0DE
:2B09BE00020000000000000000000000000000000000000000000000800600000000000000000000000000000088837B
:2B09E9000200000000000000000000000000000000000000000000008086000000000000000000000000000000008358
:2B0A1400040000000000000000000000000000000000000000000000000000000000000000000000000000000080E350
:2B0A3F000200000000000000000000000000000000000000000000000006000000000000000000000000000000808381
:2B0A6A00020000000000000000000000000000000000000000000000001000000000000000000000000000000080E4EB
:2B0A9500020000000000000000000000000000000000000000000000800100000000000000000000000000000088F437
:2B0AC000000000000000000000000000000000000000000000000000800000000000000000000000000000000000EF9C
:2B0AEB00000000000000000000000000000000000000000000000000000704000000000000000000000000000080D085
:2B0B1600000000000000000000000000000000000000000000000000800604000000000000000000000000000000C961
:2B0B4100000000000000000000000000000000000000000000000000800E000000000000000000000000000000088172
:2B0B6C00020000000000000000000000000000000000000000000000000000000000000000000000000000000008ED67
:2B0B97000200000000000000000000000000000000000000000000000006000000000000000000000000000000909209
:2B0BC200020000000000000000000000000000000000000000000000000000000000000000000000000000000008ED11
:2B0BED00020000000000000000000000000000000000000000000000801100000000000000000000000000000088F5CD
:2B0C1800000000000000000000000000000000000000000000000000800000000000000000000000000000000088E7C2
:2B0C4300000000000000000000000000000000000000000000000000000704000000000000000000000000000080D02B
:2B0C6E00000000000000000000000000000000000000000000000000800E0000000000000000000000000000008089C4
:2B0C99000000000000000000000000000000000000000000000000008006000000000000000000000000000000008921
:2B0CC400020000000000000000000000000000000000000000000000000000000000000000000000000000000008ED0E
:2B0CEF0000000000000000000000000000000000000000000000000000060000000000000000000000000000008081D3
:2B0D1A00000000000000000000000000000000000000000000000000001000000000000000000000000000000080E638
:2B0D4500000000000000000000000000000000000000000000000000800900000000000000000000000000000080FE7C
:2B0D7000000000000000000000000000000000000000000000000000800000000000000000000000000000000000EFE9
:2B0D9B00020000000000000000000000000000000000000000000000000704000000000000000000000000000008DA3E
:2B0DC60000000000000000000000000000000000000000000000000080060000000000000000000000000000000089F3
:2B0DF1000000000000000000000000000000000000000000000000008046000000000000000000000000000000008D84
:2B0E1C00000000000000000000000000000000000000000000000000000000000000000000000000000000000080E744
:2B0E47000200000000000000000000000000000000000000000000000006000000000000000000000000000000808375
:2B0E7200020000000000000000000000000000000000000000000000000000000000000000000000000000000008ED5E
:2B0E9D00040000000000000000000000000000000000000000000000801900000000000000000000000000000008F392
:2B0EC800020000000000000000000000000000000000000000000000800000000000000000000000000000000088E510
:2B0EF300020000000000000000000000000000000000000000000000000704000000000000000000000000000008DAE5
:2B0F1E000200000000000000000000000000000000000000000000008006000000000000000000000000000000008B95
:2B0F4900000000000000000000000000000000000000000000000000800601000000000000000000000000000000995D
:2B0F7400000000000000000000000000000000000000000000000000000000000000000000000000000000000080E7EB
:2B0F9F000000000000000000000000000000000000000000000000000006000000000000000000000000000000088990
:2B0FCA00000000000000000000000000000000000000000000000000000000000000000000000000000000000008EF05
:2B0FF500000000000000000000000000000000000000000000000000000200000000000000000000000000000080C58A
:2B102000800008800008800008800008800008800008000000000020000020000220000220000220000220000280C566
:2B104B00800008800008800008800008800008800008000000000020000220000220000220000220000220000280E717
:2B1076000000000000000000000000000000000000000000000000400A0104000000000000000000000000000080F888
:2B10A100000000000000000000000000000000000000000000000000000000000000000000000000000000000080E7BD
:2B10CC00000000000000000000000000000000000000000000000040000000000000000000000000000000000080A396
:2B10F700000000000000000000000000000000000000000000000000000000000000000000000000000000000080E767
:2B112200000000000000000000000000000000000000000000000000020104000000000000000000000000000080B467
:2B114D00000000000000000000000000000000000000000000000000004004000000000000000000000000000080A310
:2B117800000000000000000000000000000000000000000000000000000000000000000000000000000000000080E7E5
:2B11A300000000000000000000000000000000000000000000000000000000000000000000000000000000000080E7BA
:2B11CE00000000000000000000000000000000000000000000000000000002000000000000000000000000000080C7AD
:2B11F900000000000000000000000000000000000000000000000000000000000000000000000000000000000080E764
:2B1224000000000000000000000000000000000000000000000000000000000000000000000000000000000000A0C53A
:2B124F00120000000000000000000000000000000000000000000000000000000000000000000000000000000080F5ED
:2B127A00000000000000000000000000000000000000000000000000000000000000000000000000000000000080E7E2
:2B12A500000000000000000000000000000000000000000000000000000100000000000000000000000000000080F6A7
:2B12D000000000000000000000000000000000000000000000000000000000000000000000000000000000000080E78C
:2B12FB00000000000000000000000000000000000000000000000000000000000000000000000000000000000080E761
:2B132600000000000000000000000000000000000000000000000000000000000000000000000000000000000080E735
:2B135100000000000000000000000000000000000000000000000000000000000000000000000000000000000080E70A
:2B137C00000000000000000000000000000000000000000000000000000000000000000000000000000000000080E7DF
:2B13A700000000000000000000000000000000000000000000000000000000000000000000000000000000000080E7B4
:2B13D200000000000000000000000000000000000000000000000000000000000000000000000000000000000080E789
:2B13FD00000000000000000000000000000000000000000000000000000000000000000000000000000000000080E75E
:2B142800000000000000000000000000000000000000000000000000000000000000000000000000000000000080E732
:2B145300000000000000000000000000000000000000000000000000000000000000000000000000000000000080E707
:2B147E00000000000000000000000000000000000000000000000000000000000000000000000000000000000080E7DC
:2B14A900000000000000000000000000000000000000000000000000000000000000000000000000000000000080E7B1
:2B14D4000000000000000000000000000000000000000000000000000000000000000000000000000000000000C0A38A
:2B14FF00000000000000000000000000000000000000000000000000000000000000000000000000000000000080E75B
:2B152A000000000000000000000000000000000000000000000000000000000000000000000000000000000000C0A333
:2B155500000000000000000000000000000000000000000000000000000000000000000000000000000000000080E704
:2B158000000000000000000000000000000000000000000000000000000000000000000000000000000000000080E7D9
:2B15AB00000000000000000000000000000000000000000000000000000000000000000000000000000000000080E7AE
:2B15D600000000000000000000000000000000000000000000000000000000000000000000000000000000000080E783
:2B160100000000000000000000000000000000000000000000000000000002000000000000000000000000000080C775
:2B162C00020000000000000000000000000000000000000000000000000000000000000000000000000000000008ED9C
:2B165700000000000000000000000000000000000000000000000000000002000000000000000000000000000008CF8F
:2B168200000000000000000000000000000000000000000000000000000000000000000000000000000000000090F6B7
:2B16AD00000000000000000000000000000000000000000000000000000000000000000000000000000000000008EF1B
:2B16D800000000000000000000000000000000000000000000000000000000000000000000000000000000000008EFF0
:2B170300020000000000000000000000000000000000000000000000000000000000000000000000000000000008EDC4
:2B172E00800008800008800008800008800008800008000000000020000220000220000220000220000220000280E72D
:2B175900800008800008800008800008800008800008000000000020000220000220000220000220000220000280E702
:2B178400000000000000000000000000000000000000000000000000000000000000000000000000000000000080E7D3
:2B17AF00020000000000000000000000000000000000000000000000000000000000000000000000000000000008ED18
:2B17DA00000000000000000000000000000000000000000000000000000000000000000000000000000000000080E77D
:2B180500000000000000000000000000000000000000000000000000000000000000000000000000000000000080E751
:2B183000000000000000000000000000000000000000000000000000000000000000000000000000000000000080E726
:2B185B00000000000000000000000000000000000000000000000000000000000000000000000000000000000080E7FB
:2B188600020000000000000000000000000000000000000000000000000000000000000000000000000000000008ED40
:2B18B100000000000000000000000000000000000000000000000000000000000000000000000000000000000080E7A5
:2B18DC00000000000000000000000000000000000000000000000000000000000000000000000000000000000080E77A
:2B190700000000000000000000000000000000000000000000000000000000000000000000000000000000000080E74E
:2B193200020000000000000000000000000000000000000000000000000000000000000000000000000000000008ED93
:2B195D00000000000000000000000000000000000000000000000000000000000000000000000000000000000080E7F8
:2B198800000000000000000000000000000000000000000000000000000000000000000000000000000000000080E7CD
:2B19B300000000000000000000000000000000000000000000000000000000000000000000000000000000000080E7A2
:2B19DE00000000000000000000000000000000000000000000000000000000000000000000000000000000000080E777
:2B1A0900020000000000000000000000000000000000000000000000000000000000000000000000000000000008EDBB
:2B1A3400000000000000000000000000000000000000000000000000000000000000000000000000000000000080E720
:2B1A5F00000000000000000000000000000000000000000000000000000000000000000000000000000000000080E7F5
:2B1A8A00000000000000000000000000000000000000000000000000000000000000000000000000000000000080E7CA
:2B1AB500020000000000000000000000000000000000000000000000000000000000000000000000000000000008ED0F
:2B1AE000000000000000000000000000000000000000000000000000000000000000000000000000000000000080E774
:2B1B0B00000000000000000000000000000000000000000000000000000000000000000000000000000000000080E748
:2B1B3600000000000000000000000000000000000000000000000000000000000000000000000000000000000080E71D
:2B1B6100000000000000000000000000000000000000000000000000000000000000000000000000000000000080E7F2
:2B1B8C00020000000000000000000000000000000000000000000000000000000000000000000000000000000008ED37
:2B1BB700000000000000000000000000000000000000000000000000000000000000000000000000000000000080E79C
:2B1BE200000000000000000000000000000000000000000000000000000000000000000000000000000000000080E771
:2B1C0D00000000000000000000000000000000000000000000000000000000000000000000000000000000000080E745
:2B1C3800020000000000000000000000000000000000000000000000000000000000000000000000000000000008ED8A
:2B1C6300000000000000000000000000000000000000000000000000000000000000000000000000000000000080E7EF
:2B1C8E00000000000000000000000000000000000000000000000000000000000000000000000000000000000080E7C4
:2B1CB900000000000000000000000000000000000000000000000000000000000000000000000000000000000080E799
:2B1CE400000000000000000000000000000000000000000000000000000000000000000000000000000000000080E76E
:2B1D0F00020000000000000000000000000000000000000000000000000000000000000000000000000000000008EDB2
:2B1D3A00000000000000000000000000000000000000000000000000000000000000000000000000000000000080E717
:2B1D6500000000000000000000000000000000000000000000000000000000000000000000000000000000000080E7EC
:2B1D9000000000000000000000000000000000000000000000000000000000000000000000000000000000000080E7C1
:2B1DBB00020000000000000000000000000000000000000000000000000000000000000000000000000000000008ED06
:2B1DE600000000000000000000000000000000000000000000000000000000000000000000000000000000000080E76B
:2B1E1100000000000000000000000000000000000000000000000000000000000000000000000000000000000080E73F
:2B1E3C00000000000000000000000000000000000000000000000000000000000000000000000000000000000080E714
:2B1E6700000000000000000000000000000000000000000000000000000000000000000000000000000000000080E7E9
:2B1E9200020000000000000000000000000000000000000000000000000000000000000000000000000000000008ED2E
:2B1EBD00000000000000000000000000000000000000000000000000000000000000000000000000000000000080E793
:2B1EE800000000000000000000000000000000000000000000000000000000000000000000000000000000000080E768
:2B1F1300000000000000000000000000000000000000000000000000000000000000000000000000000000000080E73C
:2B1F3E00020000000000000000000000000000000000000000000000000000000000000000000000000000000008ED81
:2B1F6900000000000000000000000000000000000000000000000000000000000000000000000000000000000080E7E6
:2B1F9400000000000000000000000000000000000000000000000000000000000000000000000000000000000080E7BB
:2B1FBF00000000000000000000000000000000000000000000000000000000000000000000000000000000000080E790
:2B1FEA00000000000000000000000000000000000000000000000000000000000000000000000000000000000080E765
:2B201500020000000000000000000000000000000000000000000000000000000000000000000000000000000008EDA9
:2B204000000000000000000000000000000000000000000000000000000000000000000000000000000000000080E70E
:2B206B00000000000000000000000000000000000000000000000000000000000000000000000000000000000080E7E3
:2B209600000000000000000000000000000000000000000000000000000000000000000000000000000000000080E7B8
:2B20C100020000000000000000000000000000000000000000000000000000000000000000000000000000000008EDFD
:2B20EC00000000000000000000000000000000000000000000000000000000000000000000000000000000000080E762
:2B211700000000000000000000000000000000000000000000000000000000000000000000000000000000000080E736
:2B214200000000000000000000000000000000000000000000000000000000000000000000000000000000000080E70B
:2B216D00000000000000000000000000000000000000000000000000000000000000000000000000000000000080E7E0
:2B219800020000000000000000000000000000000000000000000000000000000000000000000000000000000008ED25
:2B21C300000000000000000000000000000000000000000000000000000000000000000000000000000000000080E78A
:2B21EE00000000000000000000000000000000000000000000000000000000000000000000000000000000000080E75F
:2B221900000000000000000000000000000000000000000000000000000000000000000000000000000000000080E733
:2B224400000000000000000000000000000000000000000000000000000000000000000000000000000000000080E708
:2B226F00000000000000000000000000000000000000000000000000000000000000000000000000000000000080E7DD
:2B229A00800008800008800008800008800008800008000000000020000220000220000220000220000220000280E7B6
:2B22C500800008800008800008800008800008800008000000000020000220000220000220000220000220000280E78B
:2B22F000000000000000000000000000000000000000000000000000000000000000000000000000000000000080E75C
:2B231B00000000000000000000000000000000000000000000000000000000000000000000000000000000000080E730
:2B234600000000000000000000000000000000000000000000000000000000000000000000000000000000000080E705
:2B237100000000000000000000000000000000000000000000000000000000000000000000000000000000000080E7DA
:2B239C00000000000000000000000000000000000000000000000000000000000000000000000000000000000080E7AF
:2B23C700000000000000000000000000000000000000000000000000000000000000000000000000000000000080E784
:2B23F200000000000000000000000000000000000000000000000000000000000000000000000000000000000080E759
:2B241D00000000000000000000000000000000000000000000000000000000000000000000000000000000000080E72D
:2B244800000000000000000000000000000000000000000000000000000000000000000000000000000000000080E702
:2B247300000000000000000000000000000000000000000000000000000000000000000000000000000000000080E7D7
:2B249E00000000000000000000000000000000000000000000000000000000000000000000000000000000000080E7AC
:2B24C900000000000000000000000000000000000000000000000000000000000000000000000000000000000080E781
:2B24F400000000000000000000000000000000000000000000000000000000000000000000000000000000000080E756
:2B251F00000000000000000000000000000000000000000000000000000000000000000000000000000000000080E72A
:2B254A00000000000000000000000000000000000000000000000000000000000000000000000000000000000080E7FF
:2B257500000000000000000000000000000000000000000000000000000000000000000000000000000000000080E7D4
:2B25A000000000000000000000000000000000000000000000000000000000000000000000000000000000000080E7A9
:2B25CB00000000000000000000000000000000000000000000000000000000000000000000000000000000000080E77E
:2B25F600000000000000000000000000000000000000000000000000000000000000000000000000000000000080E753
:2B262100000000000000000000000000000000000000000000000000000000000000000000000000000000000080E727
:2B264C00000000000000000000000000000000000000000000000000000000000000000000000000000000000080E7FC
:2B267700000000000000000000000000000000000000000000000000000000000000000000000000000000000080E7D1
:2B26A200000000000000000000000000000000000000000000000000000000000000000000000000000000000080E7A6
:2B26CD00000000000000000000000000000000000000000000000000000000000000000000000000000000000080E77B
:2B26F800000000000000000000000000000000000000000000000000000000000000000000000000000000000080E750
:2B272300000000000000000000000000000000000000000000000000000000000000000000000000000000000080E724
:2B274E00000000000000000000000000000000000000000000000000000000000000000000000000000000000080E7F9
:2B277900000000000000000000000000000000000000000000000000000000000000000000000000000000000080E7CE
:2B27A400000000000000000000000000000000000000000000000000000000000000000000000000000000000080E7A3
:2B27CF00000000000000000000000000000000000000000000000000000000000000000000000000000000000080E778
:2B27FA00000000000000000000000000000000000000000000000000000000000000000000000000000000000080E74D
:2B282500000000000000000000000000000000000000000000000000000000000000000000000000000000000080E721
:2B285000000000000000000000000000000000000000000000000000000000000000000000000000000000000080E7F6
:2B287B00000000000000000000000000000000000000000000000000000000000000000000000000000000000080E7CB
:2B28A600020000000000000000000000000000000000000000000000000000000000000000000000000000000008ED10
:2B28D100000000000000000000000000000000000000000000000000000000000000000000000000000000000080E775
:2B28FC00000000000000000000000000000000000000000000000000000000000000000000000000000000000080E74A
:2B292700000000000000000000000000000000000000000000000000000000000000000000000000000000000080E71E
:2B295200000000000000000000000000000000000000000000000000000000000000000000000000000000000080E7F3
:2B297D00020000000000000000000000000000000000000000000000000000000000000000000000000000000008ED38
:2B29A800800008800008800008800008800008800008000000000020000220000220000220000220000220000280E7A1
:2B29D300800008800008800008800008800008800008000000000020000220000220000220000220000220000280E776
:2B29FE00000000000000000000000000000000000000000000000000000000000000000000000000000000000080E747
:2B2A2900020000000000000000000000000000000000000000000000000000000000000000000000000000000008ED8B
:2B2A5400000000000000000000000000000000000000000000000000000000000000000000000000000000000080E7F0
:2B2A7F00000000000000000000000000000000000000000000000000000000000000000000000000000000000080E7C5
:2B2AAA00000000000000000000000000000000000000000000000000000000000000000000000000000000000080E79A
:2B2AD500000000000000000000000000000000000000000000000000000000000000000000000000000000000080E76F
:2B2B0000020000000000000000000000000000000000000000000000000000000000000000000000000000000008EDB3
:2B2B2B00000000000000000000000000000000000000000000000000000000000000000000000000000000000080E718
:2B2B5600000000000000000000000000000000000000000000000000000000000000000000000000000000000080E7ED
:2B2B8100000000000000000000000000000000000000000000000000000000000000000000000000000000000080E7C2
:2B2BAC00020000000000000000000000000000000000000000000000000000000000000000000000000000000008ED07
:2B2BD700000000000000000000000000000000000000000000000000000000000000000000000000000000000080E76C
:2B2C0200000000000000000000000000000000000000000000000000000000000000000000000000000000000080E740
:2B2C2D00000000000000000000000000000000000000000000000000000000000000000000000000000000000080E715
:2B2C5800000000000000000000000000000000000000000000000000000000000000000000000000000000000080E7EA
:2B2C8300020000000000000000000000000000000000000000000000000000000000000000000000000000000008ED2F
:2B2CAE00000000000000000000000000000000000000000000000000000000000000000000000000000000000080E794
:2B2CD900000000000000000000000000000000000000000000000000000000000000000000000000000000000080E769
:2B2D0400000000000000000000000000000000000000000000000000000000000000000000000000000000000080E73D
:2B2D2F00020000000000000000000000000000000000000000000000000000000000000000000000000000000008ED82
:2B2D5A00000000000000000000000000000000000000000000000000000000000000000000000000000000000080E7E7
:2B2D8500000000000000000000000000000000000000000000000000000000000000000000000000000000000080E7BC
:2B2DB000000000000000000000000000000000000000000000000000000000000000000000000000000000000080E791
:2B2DDB00000000000000000000000000000000000000000000000000000000000000000000000000000000000080E766
:2B2E0600020000000000000000000000000000000000000000000000000000000000000000000000000000000008EDAA
:2B2E3100000000000000000000000000000000000000000000000000000000000000000000000000000000000080E70F
:2B2E5C00000000000000000000000000000000000000000000000000000000000000000000000000000000000080E7E4
:2B2E8700000000000000000000000000000000000000000000000000000000000000000000000000000000000080E7B9
:2B2EB200020000000000000000000000000000000000000000000000000000000000000000000000000000000008EDFE
:2B2EDD00000000000000000000000000000000000000000000000000000000000000000000000000000000000080E763
:2B2F0800000000000000000000000000000000000000000000000000000000000000000000000000000000000080E737
:2B2F3300000000000000000000000000000000000000000000000000000000000000000000000000000000000080E70C
:2B2F5E00000000000000000000000000000000000000000000000000000000000000000000000000000000000080E7E1
:2B2F8900020000000000000000000000000000000000000000000000000000000000000000000000000000000008ED26
:2B2FB400000000000000000000000000000000000000000000000000000000000000000000000000000000000080E78B
:2B2FDF00000000000000000000000000000000000000000000000000000000000000000000000000000000000080E760
:2B300A00000000000000000000000000000000000000000000000000000000000000000000000000000000000080E734
:2B303500020000000000000000000000000000000000000000000000000000000000000000000000000000000008ED79
:2B306000000000000000000000000000000000000000000000000000000000000000000000000000000000000080E7DE
:2B308B00000000000000000000000000000000000000000000000000000000000000000000000000000000000080E7B3
:2B30B600000000000000000000000000000000000000000000000000000000000000000000000000000000000080E788
:2B30E100000000000000000000000000000000000000000000000000000000000000000000000000000000000080E75D
:2B310C00020000000000000000000000000000000000000000000000000000000000000000000000000000000008EDA1
:2B313700000000000000000000000000000000000000000000000000000000000000000000000000000000000080E706
:2B316200000000000000000000000000000000000000000000000000000000000000000000000000000000000080E7DB
:2B318D00000000000000000000000000000000000000000000000000000000000000000000000000000000000080E7B0
:2B31B800020000000000000000000000000000000000000000000000000000000000000000000000000000000008EDF5
:2B31E300000000000000000000000000000000000000000000000000000000000000000000000000000000000080E75A
:2B320E00000000000000000000000000000000000000000000000000000000000000000000000000000000000080E72E
:2B323900000000000000000000000000000000000000000000000000000000000000000000000000000000000080E703
:2B326400000000000000000000000000000000000000000000000000000000000000000000000000000000000080E7D8
:2B328F00020000000000000000000000000000000000000000000000000000000000000000000000000000000008ED1D
:2B32BA00000000000000000000000000000000000000000000000000000000000000000000000000000000000080E782
:2B32E500000000000000000000000000000000000000000000000000000000000000000000000000000000000080E757
:2B331000000000000000000000000000000000000000000000000000000000000000000000000000000000000080E72B
:2B333B00020000000000000000000000000000000000000000000000000000000000000000000000000000000008ED70
:2B336600000000000000000000000000000000000000000000000000000000000000000000000000000000000080E7D5
:2B339100000000000000000000000000000000000000000000000000000000000000000000000000000000000080E7AA
:2B33BC00000000000000000000000000000000000000000000000000000000000000000000000000000000000080E77F
:2B33E700000000000000000000000000000000000000000000000000000000000000000000000000000000000080E754
:2B341200020000000000000000000000000000000000000000000000000000000000000000000000000000000008ED98
:2B343D00000000000000000000000000000000000000000000000000000000000000000000000000000000000080E7FD
:2B346800000000000000000000000000000000000000000000000000000000000000000000000000000000000080E7D2
:2B349300000000000000000000000000000000000000000000000000000000000000000000000000000000000080E7A7
:2B34BE00000000000000000000000000000000000000000000000000000000000000000000000000000000000080E77C
:2B34E900000000000000000000000000000000000000000000000000000000000000000000000000000000000080E751
:2B351400800008800008800008800008800008800008000000000020000220000220000220000220000220000280E729
:2B353F00800008800008800008800008800008800008000000000020000220000220000220000220000220000280E7FE
:2B356A00000000000000000000000000000000000000000000000000000000000000000000000000000000000080E7CF
:2B359500000000000000000000000000000000000000000000000000000000000000000000000000000000000080E7A4
:2B35C000000000000000000000000000000000000000000000000000000000000000000000000000000000000080E779
:2B35EB00000000000000000000000000000000000000000000000000000000000000000000000000000000000080E74E
:2B361600000000000000000000000000000000000000000000000000000000000000000000000000000000000080E722
:2B364100000000000000000000000000000000000000000000000000000000000000000000000000000000000080E7F7
:2B366C00000000000000000000000000000000000000000000000000000000000000000000000000000000000080E7CC
:2B369700000000000000000000000000000000000000000000000000000000000000000000000000000000000080E7A1
:2B36C200000000000000000000000000000000000000000000000000000000000000000000000000000000000080E776
:2B36ED00000000000000000000000000000000000000000000000000000000000000000000000000000000000080E74B
:2B371800000000000000000000000000000000000000000000000000000000000000000000000000000000000080E71F
:2B374300000000000000000000000000000000000000000000000000000000000000000000000000000000000080E7F4
:2B376E00000000000000000000000000000000000000000000000000000000000000000000000000000000000080E7C9
:2B379900000000000000000000000000000000000000000000000000000000000000000000000000000000000080E79E
:2B37C400000000000000000000000000000000000000000000000000000000000000000000000000000000000080E773
:2B37EF00000000000000000000000000000000000000000000000000000000000000000000000000000000000080E748
:2B381A00000000000000000000000000000000000000000000000000000000000000000000000000000000000080E71C
:2B384500000000000000000000000000000000000000000000000000000000000000000000000000000000000080E7F1
:2B387000000000000000000000000000000000000000000000000000000000000000000000000000000000000080E7C6
:2B389B00000000000000000000000000000000000000000000000008010000000000000000000000000000000000EE0B
:2B38C600000000000000000000000000000000000000000000000020000000000000000000000000000000000080C572
:2B38F100000000000000000000000000000000000000000000000000000000000000000000000000000000000080E745
:2B391C00000000000000000000000000000000000000000000000000000000000000000000000000000000000080E719
:2B394700401004411004411004411004411004411004010000000038044110044110044110044110044110044100CD64
:2B397200601886611886611886611886611886611886010000000058866118866118866118866118866118866180A3D3
:02399D00FFFF2A
:00000001FF
